{
	"Transfer.sol": {
		"Transfer": {
			"abi": [
				{
					"inputs": [],
					"stateMutability": "nonpayable",
					"type": "constructor"
				},
				{
					"inputs": [],
					"name": "transfer",
					"outputs": [],
					"stateMutability": "nonpayable",
					"type": "function"
				},
				{
					"inputs": [],
					"name": "transferir",
					"outputs": [],
					"stateMutability": "nonpayable",
					"type": "function"
				}
			],
			"devdoc": {
				"kind": "dev",
				"methods": {},
				"version": 1
			},
			"evm": {
				"assembly": "    /* \"Transfer.sol\":60:1186  contract Transfer{... */\n  mstore(0x40, 0x80)\n    /* \"Transfer.sol\":130:187  constructor(){... */\n  callvalue\n  dup1\n  iszero\n  tag_1\n  jumpi\n  revert(0x00, 0x00)\ntag_1:\n  pop\n    /* \"Transfer.sol\":168:178  msg.sender */\n  caller\n    /* \"Transfer.sol\":154:159  owner */\n  0x00\n  0x00\n    /* \"Transfer.sol\":154:179  owner=payable(msg.sender) */\n  0x0100\n  exp\n  dup2\n  sload\n  dup2\n  0xffffffffffffffffffffffffffffffffffffffff\n  mul\n  not\n  and\n  swap1\n  dup4\n  0xffffffffffffffffffffffffffffffffffffffff\n  and\n  mul\n  or\n  swap1\n  sstore\n  pop\n    /* \"Transfer.sol\":60:1186  contract Transfer{... */\n  dataSize(sub_0)\n  dup1\n  dataOffset(sub_0)\n  0x00\n  codecopy\n  0x00\n  return\nstop\n\nsub_0: assembly {\n        /* \"Transfer.sol\":60:1186  contract Transfer{... */\n      mstore(0x40, 0x80)\n      callvalue\n      dup1\n      iszero\n      tag_1\n      jumpi\n      revert(0x00, 0x00)\n    tag_1:\n      pop\n      jumpi(tag_2, lt(calldatasize, 0x04))\n      shr(0xe0, calldataload(0x00))\n      dup1\n      0x8a4068dd\n      eq\n      tag_3\n      jumpi\n      dup1\n      0xb981f53a\n      eq\n      tag_4\n      jumpi\n    tag_2:\n      revert(0x00, 0x00)\n        /* \"Transfer.sol\":970:1159  function transfer() public{... */\n    tag_3:\n      tag_5\n      tag_6\n      jump\t// in\n    tag_5:\n      stop\n        /* \"Transfer.sol\":193:868  function transferir () public {... */\n    tag_4:\n      tag_7\n      tag_8\n      jump\t// in\n    tag_7:\n      stop\n        /* \"Transfer.sol\":970:1159  function transfer() public{... */\n    tag_6:\n        /* \"Transfer.sol\":1050:1055  owner */\n      0x00\n      0x00\n      swap1\n      sload\n      swap1\n      0x0100\n      exp\n      swap1\n      div\n      0xffffffffffffffffffffffffffffffffffffffff\n      and\n        /* \"Transfer.sol\":1038:1055  msg.sender==owner */\n      0xffffffffffffffffffffffffffffffffffffffff\n      and\n        /* \"Transfer.sol\":1038:1048  msg.sender */\n      caller\n        /* \"Transfer.sol\":1038:1055  msg.sender==owner */\n      0xffffffffffffffffffffffffffffffffffffffff\n      and\n      eq\n        /* \"Transfer.sol\":1030:1069  require(msg.sender==owner, \"not owner\") */\n      tag_10\n      jumpi\n      mload(0x40)\n      0x08c379a000000000000000000000000000000000000000000000000000000000\n      dup2\n      mstore\n      0x04\n      add\n      tag_11\n      swap1\n      tag_12\n      jump\t// in\n    tag_11:\n      mload(0x40)\n      dup1\n      swap2\n      sub\n      swap1\n      revert\n    tag_10:\n        /* \"Transfer.sol\":1114:1119  owner */\n      0x00\n      0x00\n      swap1\n      sload\n      swap1\n      0x0100\n      exp\n      swap1\n      div\n      0xffffffffffffffffffffffffffffffffffffffff\n      and\n        /* \"Transfer.sol\":1114:1128  owner.transfer */\n      0xffffffffffffffffffffffffffffffffffffffff\n      and\n        /* \"Transfer.sol\":1114:1151  owner.transfer(address(this).balance) */\n      0x08fc\n        /* \"Transfer.sol\":1129:1150  address(this).balance */\n      selfbalance\n        /* \"Transfer.sol\":1114:1151  owner.transfer(address(this).balance) */\n      swap1\n      dup2\n      iszero\n      mul\n      swap1\n      mload(0x40)\n      0x00\n      mload(0x40)\n      dup1\n      dup4\n      sub\n      dup2\n      dup6\n      dup9\n      dup9\n      call\n      swap4\n      pop\n      pop\n      pop\n      pop\n      iszero\n      dup1\n      iszero\n      tag_14\n      jumpi\n      returndatacopy(0x00, 0x00, returndatasize)\n      revert(0x00, returndatasize)\n    tag_14:\n      pop\n        /* \"Transfer.sol\":970:1159  function transfer() public{... */\n      jump\t// out\n        /* \"Transfer.sol\":193:868  function transferir () public {... */\n    tag_8:\n        /* \"Transfer.sol\":277:282  owner */\n      0x00\n      0x00\n      swap1\n      sload\n      swap1\n      0x0100\n      exp\n      swap1\n      div\n      0xffffffffffffffffffffffffffffffffffffffff\n      and\n        /* \"Transfer.sol\":265:282  msg.sender==owner */\n      0xffffffffffffffffffffffffffffffffffffffff\n      and\n        /* \"Transfer.sol\":265:275  msg.sender */\n      caller\n        /* \"Transfer.sol\":265:282  msg.sender==owner */\n      0xffffffffffffffffffffffffffffffffffffffff\n      and\n      eq\n        /* \"Transfer.sol\":257:295  require(msg.sender==owner,\"Not owner\") */\n      tag_16\n      jumpi\n      mload(0x40)\n      0x08c379a000000000000000000000000000000000000000000000000000000000\n      dup2\n      mstore\n      0x04\n      add\n      tag_17\n      swap1\n      tag_18\n      jump\t// in\n    tag_17:\n      mload(0x40)\n      dup1\n      swap2\n      sub\n      swap1\n      revert\n    tag_16:\n        /* \"Transfer.sol\":323:335  bool success */\n      0x00\n        /* \"Transfer.sol\":340:345  owner */\n      0x00\n      0x00\n      swap1\n      sload\n      swap1\n      0x0100\n      exp\n      swap1\n      div\n      0xffffffffffffffffffffffffffffffffffffffff\n      and\n        /* \"Transfer.sol\":340:350  owner.call */\n      0xffffffffffffffffffffffffffffffffffffffff\n      and\n        /* \"Transfer.sol\":358:379  address(this).balance */\n      selfbalance\n        /* \"Transfer.sol\":340:384  owner.call{value: address(this).balance}('') */\n      mload(0x40)\n      tag_19\n      swap1\n      tag_20\n      jump\t// in\n    tag_19:\n      0x00\n      mload(0x40)\n      dup1\n      dup4\n      sub\n      dup2\n      dup6\n      dup8\n      gas\n      call\n      swap3\n      pop\n      pop\n      pop\n      returndatasize\n      dup1\n      0x00\n      dup2\n      eq\n      tag_23\n      jumpi\n      mload(0x40)\n      swap2\n      pop\n      and(add(returndatasize, 0x3f), not(0x1f))\n      dup3\n      add\n      0x40\n      mstore\n      returndatasize\n      dup3\n      mstore\n      returndatasize\n      0x00\n      0x20\n      dup5\n      add\n      returndatacopy\n      jump(tag_22)\n    tag_23:\n      0x60\n      swap2\n      pop\n    tag_22:\n      pop\n        /* \"Transfer.sol\":322:384  (bool success, )= owner.call{value: address(this).balance}('') */\n      pop\n      swap1\n      pop\n        /* \"Transfer.sol\":612:619  success */\n      dup1\n        /* \"Transfer.sol\":604:645  require(success, \"No se pudo transferir\") */\n      tag_24\n      jumpi\n      mload(0x40)\n      0x08c379a000000000000000000000000000000000000000000000000000000000\n      dup2\n      mstore\n      0x04\n      add\n      tag_25\n      swap1\n      tag_26\n      jump\t// in\n    tag_25:\n      mload(0x40)\n      dup1\n      swap2\n      sub\n      swap1\n      revert\n    tag_24:\n        /* \"Transfer.sol\":223:868  {... */\n      pop\n        /* \"Transfer.sol\":193:868  function transferir () public {... */\n      jump\t// out\n        /* \"#utility.yul\":7:176   */\n    tag_27:\n        /* \"#utility.yul\":91:102   */\n      0x00\n        /* \"#utility.yul\":125:131   */\n      dup3\n        /* \"#utility.yul\":120:123   */\n      dup3\n        /* \"#utility.yul\":113:132   */\n      mstore\n        /* \"#utility.yul\":165:169   */\n      0x20\n        /* \"#utility.yul\":160:163   */\n      dup3\n        /* \"#utility.yul\":156:170   */\n      add\n        /* \"#utility.yul\":141:170   */\n      swap1\n      pop\n        /* \"#utility.yul\":7:176   */\n      swap3\n      swap2\n      pop\n      pop\n      jump\t// out\n        /* \"#utility.yul\":182:341   */\n    tag_28:\n        /* \"#utility.yul\":322:333   */\n      0x6e6f74206f776e65720000000000000000000000000000000000000000000000\n        /* \"#utility.yul\":318:319   */\n      0x00\n        /* \"#utility.yul\":310:316   */\n      dup3\n        /* \"#utility.yul\":306:320   */\n      add\n        /* \"#utility.yul\":299:334   */\n      mstore\n        /* \"#utility.yul\":182:341   */\n      pop\n      jump\t// out\n        /* \"#utility.yul\":347:712   */\n    tag_29:\n        /* \"#utility.yul\":489:492   */\n      0x00\n        /* \"#utility.yul\":510:576   */\n      tag_41\n        /* \"#utility.yul\":574:575   */\n      0x09\n        /* \"#utility.yul\":569:572   */\n      dup4\n        /* \"#utility.yul\":510:576   */\n      tag_27\n      jump\t// in\n    tag_41:\n        /* \"#utility.yul\":503:576   */\n      swap2\n      pop\n        /* \"#utility.yul\":585:678   */\n      tag_42\n        /* \"#utility.yul\":674:677   */\n      dup3\n        /* \"#utility.yul\":585:678   */\n      tag_28\n      jump\t// in\n    tag_42:\n        /* \"#utility.yul\":703:705   */\n      0x20\n        /* \"#utility.yul\":698:701   */\n      dup3\n        /* \"#utility.yul\":694:706   */\n      add\n        /* \"#utility.yul\":687:706   */\n      swap1\n      pop\n        /* \"#utility.yul\":347:712   */\n      swap2\n      swap1\n      pop\n      jump\t// out\n        /* \"#utility.yul\":718:1137   */\n    tag_12:\n        /* \"#utility.yul\":884:888   */\n      0x00\n        /* \"#utility.yul\":922:924   */\n      0x20\n        /* \"#utility.yul\":911:920   */\n      dup3\n        /* \"#utility.yul\":907:925   */\n      add\n        /* \"#utility.yul\":899:925   */\n      swap1\n      pop\n        /* \"#utility.yul\":971:980   */\n      dup2\n        /* \"#utility.yul\":965:969   */\n      dup2\n        /* \"#utility.yul\":961:981   */\n      sub\n        /* \"#utility.yul\":957:958   */\n      0x00\n        /* \"#utility.yul\":946:955   */\n      dup4\n        /* \"#utility.yul\":942:959   */\n      add\n        /* \"#utility.yul\":935:982   */\n      mstore\n        /* \"#utility.yul\":999:1130   */\n      tag_44\n        /* \"#utility.yul\":1125:1129   */\n      dup2\n        /* \"#utility.yul\":999:1130   */\n      tag_29\n      jump\t// in\n    tag_44:\n        /* \"#utility.yul\":991:1130   */\n      swap1\n      pop\n        /* \"#utility.yul\":718:1137   */\n      swap2\n      swap1\n      pop\n      jump\t// out\n        /* \"#utility.yul\":1143:1302   */\n    tag_30:\n        /* \"#utility.yul\":1283:1294   */\n      0x4e6f74206f776e65720000000000000000000000000000000000000000000000\n        /* \"#utility.yul\":1279:1280   */\n      0x00\n        /* \"#utility.yul\":1271:1277   */\n      dup3\n        /* \"#utility.yul\":1267:1281   */\n      add\n        /* \"#utility.yul\":1260:1295   */\n      mstore\n        /* \"#utility.yul\":1143:1302   */\n      pop\n      jump\t// out\n        /* \"#utility.yul\":1308:1673   */\n    tag_31:\n        /* \"#utility.yul\":1450:1453   */\n      0x00\n        /* \"#utility.yul\":1471:1537   */\n      tag_47\n        /* \"#utility.yul\":1535:1536   */\n      0x09\n        /* \"#utility.yul\":1530:1533   */\n      dup4\n        /* \"#utility.yul\":1471:1537   */\n      tag_27\n      jump\t// in\n    tag_47:\n        /* \"#utility.yul\":1464:1537   */\n      swap2\n      pop\n        /* \"#utility.yul\":1546:1639   */\n      tag_48\n        /* \"#utility.yul\":1635:1638   */\n      dup3\n        /* \"#utility.yul\":1546:1639   */\n      tag_30\n      jump\t// in\n    tag_48:\n        /* \"#utility.yul\":1664:1666   */\n      0x20\n        /* \"#utility.yul\":1659:1662   */\n      dup3\n        /* \"#utility.yul\":1655:1667   */\n      add\n        /* \"#utility.yul\":1648:1667   */\n      swap1\n      pop\n        /* \"#utility.yul\":1308:1673   */\n      swap2\n      swap1\n      pop\n      jump\t// out\n        /* \"#utility.yul\":1679:2098   */\n    tag_18:\n        /* \"#utility.yul\":1845:1849   */\n      0x00\n        /* \"#utility.yul\":1883:1885   */\n      0x20\n        /* \"#utility.yul\":1872:1881   */\n      dup3\n        /* \"#utility.yul\":1868:1886   */\n      add\n        /* \"#utility.yul\":1860:1886   */\n      swap1\n      pop\n        /* \"#utility.yul\":1932:1941   */\n      dup2\n        /* \"#utility.yul\":1926:1930   */\n      dup2\n        /* \"#utility.yul\":1922:1942   */\n      sub\n        /* \"#utility.yul\":1918:1919   */\n      0x00\n        /* \"#utility.yul\":1907:1916   */\n      dup4\n        /* \"#utility.yul\":1903:1920   */\n      add\n        /* \"#utility.yul\":1896:1943   */\n      mstore\n        /* \"#utility.yul\":1960:2091   */\n      tag_50\n        /* \"#utility.yul\":2086:2090   */\n      dup2\n        /* \"#utility.yul\":1960:2091   */\n      tag_31\n      jump\t// in\n    tag_50:\n        /* \"#utility.yul\":1952:2091   */\n      swap1\n      pop\n        /* \"#utility.yul\":1679:2098   */\n      swap2\n      swap1\n      pop\n      jump\t// out\n        /* \"#utility.yul\":2104:2251   */\n    tag_32:\n        /* \"#utility.yul\":2205:2216   */\n      0x00\n        /* \"#utility.yul\":2242:2245   */\n      dup2\n        /* \"#utility.yul\":2227:2245   */\n      swap1\n      pop\n        /* \"#utility.yul\":2104:2251   */\n      swap3\n      swap2\n      pop\n      pop\n      jump\t// out\n        /* \"#utility.yul\":2257:2371   */\n    tag_33:\n      pop\n      jump\t// out\n        /* \"#utility.yul\":2377:2775   */\n    tag_34:\n        /* \"#utility.yul\":2536:2539   */\n      0x00\n        /* \"#utility.yul\":2557:2640   */\n      tag_54\n        /* \"#utility.yul\":2638:2639   */\n      0x00\n        /* \"#utility.yul\":2633:2636   */\n      dup4\n        /* \"#utility.yul\":2557:2640   */\n      tag_32\n      jump\t// in\n    tag_54:\n        /* \"#utility.yul\":2550:2640   */\n      swap2\n      pop\n        /* \"#utility.yul\":2649:2742   */\n      tag_55\n        /* \"#utility.yul\":2738:2741   */\n      dup3\n        /* \"#utility.yul\":2649:2742   */\n      tag_33\n      jump\t// in\n    tag_55:\n        /* \"#utility.yul\":2767:2768   */\n      0x00\n        /* \"#utility.yul\":2762:2765   */\n      dup3\n        /* \"#utility.yul\":2758:2769   */\n      add\n        /* \"#utility.yul\":2751:2769   */\n      swap1\n      pop\n        /* \"#utility.yul\":2377:2775   */\n      swap2\n      swap1\n      pop\n      jump\t// out\n        /* \"#utility.yul\":2781:3160   */\n    tag_20:\n        /* \"#utility.yul\":2965:2968   */\n      0x00\n        /* \"#utility.yul\":2987:3134   */\n      tag_57\n        /* \"#utility.yul\":3130:3133   */\n      dup3\n        /* \"#utility.yul\":2987:3134   */\n      tag_34\n      jump\t// in\n    tag_57:\n        /* \"#utility.yul\":2980:3134   */\n      swap2\n      pop\n        /* \"#utility.yul\":3151:3154   */\n      dup2\n        /* \"#utility.yul\":3144:3154   */\n      swap1\n      pop\n        /* \"#utility.yul\":2781:3160   */\n      swap2\n      swap1\n      pop\n      jump\t// out\n        /* \"#utility.yul\":3166:3337   */\n    tag_35:\n        /* \"#utility.yul\":3306:3329   */\n      0x4e6f207365207075646f207472616e7366657269720000000000000000000000\n        /* \"#utility.yul\":3302:3303   */\n      0x00\n        /* \"#utility.yul\":3294:3300   */\n      dup3\n        /* \"#utility.yul\":3290:3304   */\n      add\n        /* \"#utility.yul\":3283:3330   */\n      mstore\n        /* \"#utility.yul\":3166:3337   */\n      pop\n      jump\t// out\n        /* \"#utility.yul\":3343:3709   */\n    tag_36:\n        /* \"#utility.yul\":3485:3488   */\n      0x00\n        /* \"#utility.yul\":3506:3573   */\n      tag_60\n        /* \"#utility.yul\":3570:3572   */\n      0x15\n        /* \"#utility.yul\":3565:3568   */\n      dup4\n        /* \"#utility.yul\":3506:3573   */\n      tag_27\n      jump\t// in\n    tag_60:\n        /* \"#utility.yul\":3499:3573   */\n      swap2\n      pop\n        /* \"#utility.yul\":3582:3675   */\n      tag_61\n        /* \"#utility.yul\":3671:3674   */\n      dup3\n        /* \"#utility.yul\":3582:3675   */\n      tag_35\n      jump\t// in\n    tag_61:\n        /* \"#utility.yul\":3700:3702   */\n      0x20\n        /* \"#utility.yul\":3695:3698   */\n      dup3\n        /* \"#utility.yul\":3691:3703   */\n      add\n        /* \"#utility.yul\":3684:3703   */\n      swap1\n      pop\n        /* \"#utility.yul\":3343:3709   */\n      swap2\n      swap1\n      pop\n      jump\t// out\n        /* \"#utility.yul\":3715:4134   */\n    tag_26:\n        /* \"#utility.yul\":3881:3885   */\n      0x00\n        /* \"#utility.yul\":3919:3921   */\n      0x20\n        /* \"#utility.yul\":3908:3917   */\n      dup3\n        /* \"#utility.yul\":3904:3922   */\n      add\n        /* \"#utility.yul\":3896:3922   */\n      swap1\n      pop\n        /* \"#utility.yul\":3968:3977   */\n      dup2\n        /* \"#utility.yul\":3962:3966   */\n      dup2\n        /* \"#utility.yul\":3958:3978   */\n      sub\n        /* \"#utility.yul\":3954:3955   */\n      0x00\n        /* \"#utility.yul\":3943:3952   */\n      dup4\n        /* \"#utility.yul\":3939:3956   */\n      add\n        /* \"#utility.yul\":3932:3979   */\n      mstore\n        /* \"#utility.yul\":3996:4127   */\n      tag_63\n        /* \"#utility.yul\":4122:4126   */\n      dup2\n        /* \"#utility.yul\":3996:4127   */\n      tag_36\n      jump\t// in\n    tag_63:\n        /* \"#utility.yul\":3988:4127   */\n      swap1\n      pop\n        /* \"#utility.yul\":3715:4134   */\n      swap2\n      swap1\n      pop\n      jump\t// out\n\n    auxdata: 0xa264697066735822122035de62b53d94ff74ad3d5216c3b214ce10a6abae87ef7f3b87d26185bfe487f164736f6c634300081e0033\n}\n",
				"bytecode": {
					"linkReferences": {},
					"object": "6080604052348015600e575f5ffd5b50335f5f6101000a81548173ffffffffffffffffffffffffffffffffffffffff021916908373ffffffffffffffffffffffffffffffffffffffff1602179055506104588061005b5f395ff3fe608060405234801561000f575f5ffd5b5060043610610034575f3560e01c80638a4068dd14610038578063b981f53a14610042575b5f5ffd5b61004061004c565b005b61004a610140565b005b5f5f9054906101000a900473ffffffffffffffffffffffffffffffffffffffff1673ffffffffffffffffffffffffffffffffffffffff163373ffffffffffffffffffffffffffffffffffffffff16146100da576040517f08c379a00000000000000000000000000000000000000000000000000000000081526004016100d1906102f3565b60405180910390fd5b5f5f9054906101000a900473ffffffffffffffffffffffffffffffffffffffff1673ffffffffffffffffffffffffffffffffffffffff166108fc4790811502906040515f60405180830381858888f1935050505015801561013d573d5f5f3e3d5ffd5b50565b5f5f9054906101000a900473ffffffffffffffffffffffffffffffffffffffff1673ffffffffffffffffffffffffffffffffffffffff163373ffffffffffffffffffffffffffffffffffffffff16146101ce576040517f08c379a00000000000000000000000000000000000000000000000000000000081526004016101c59061035b565b60405180910390fd5b5f5f5f9054906101000a900473ffffffffffffffffffffffffffffffffffffffff1673ffffffffffffffffffffffffffffffffffffffff1647604051610213906103a6565b5f6040518083038185875af1925050503d805f811461024d576040519150601f19603f3d011682016040523d82523d5f602084013e610252565b606091505b5050905080610296576040517f08c379a000000000000000000000000000000000000000000000000000000000815260040161028d90610404565b60405180910390fd5b50565b5f82825260208201905092915050565b7f6e6f74206f776e657200000000000000000000000000000000000000000000005f82015250565b5f6102dd600983610299565b91506102e8826102a9565b602082019050919050565b5f6020820190508181035f83015261030a816102d1565b9050919050565b7f4e6f74206f776e657200000000000000000000000000000000000000000000005f82015250565b5f610345600983610299565b915061035082610311565b602082019050919050565b5f6020820190508181035f83015261037281610339565b9050919050565b5f81905092915050565b50565b5f6103915f83610379565b915061039c82610383565b5f82019050919050565b5f6103b082610386565b9150819050919050565b7f4e6f207365207075646f207472616e73666572697200000000000000000000005f82015250565b5f6103ee601583610299565b91506103f9826103ba565b602082019050919050565b5f6020820190508181035f83015261041b816103e2565b905091905056fea264697066735822122035de62b53d94ff74ad3d5216c3b214ce10a6abae87ef7f3b87d26185bfe487f164736f6c634300081e0033",
					"opcodes": "PUSH1 0x80 PUSH1 0x40 MSTORE CALLVALUE DUP1 ISZERO PUSH1 0xE JUMPI PUSH0 PUSH0 REVERT JUMPDEST POP CALLER PUSH0 PUSH0 PUSH2 0x100 EXP DUP2 SLOAD DUP2 PUSH20 0xFFFFFFFFFFFFFFFFFFFFFFFFFFFFFFFFFFFFFFFF MUL NOT AND SWAP1 DUP4 PUSH20 0xFFFFFFFFFFFFFFFFFFFFFFFFFFFFFFFFFFFFFFFF AND MUL OR SWAP1 SSTORE POP PUSH2 0x458 DUP1 PUSH2 0x5B PUSH0 CODECOPY PUSH0 RETURN INVALID PUSH1 0x80 PUSH1 0x40 MSTORE CALLVALUE DUP1 ISZERO PUSH2 0xF JUMPI PUSH0 PUSH0 REVERT JUMPDEST POP PUSH1 0x4 CALLDATASIZE LT PUSH2 0x34 JUMPI PUSH0 CALLDATALOAD PUSH1 0xE0 SHR DUP1 PUSH4 0x8A4068DD EQ PUSH2 0x38 JUMPI DUP1 PUSH4 0xB981F53A EQ PUSH2 0x42 JUMPI JUMPDEST PUSH0 PUSH0 REVERT JUMPDEST PUSH2 0x40 PUSH2 0x4C JUMP JUMPDEST STOP JUMPDEST PUSH2 0x4A PUSH2 0x140 JUMP JUMPDEST STOP JUMPDEST PUSH0 PUSH0 SWAP1 SLOAD SWAP1 PUSH2 0x100 EXP SWAP1 DIV PUSH20 0xFFFFFFFFFFFFFFFFFFFFFFFFFFFFFFFFFFFFFFFF AND PUSH20 0xFFFFFFFFFFFFFFFFFFFFFFFFFFFFFFFFFFFFFFFF AND CALLER PUSH20 0xFFFFFFFFFFFFFFFFFFFFFFFFFFFFFFFFFFFFFFFF AND EQ PUSH2 0xDA JUMPI PUSH1 0x40 MLOAD PUSH32 0x8C379A000000000000000000000000000000000000000000000000000000000 DUP2 MSTORE PUSH1 0x4 ADD PUSH2 0xD1 SWAP1 PUSH2 0x2F3 JUMP JUMPDEST PUSH1 0x40 MLOAD DUP1 SWAP2 SUB SWAP1 REVERT JUMPDEST PUSH0 PUSH0 SWAP1 SLOAD SWAP1 PUSH2 0x100 EXP SWAP1 DIV PUSH20 0xFFFFFFFFFFFFFFFFFFFFFFFFFFFFFFFFFFFFFFFF AND PUSH20 0xFFFFFFFFFFFFFFFFFFFFFFFFFFFFFFFFFFFFFFFF AND PUSH2 0x8FC SELFBALANCE SWAP1 DUP2 ISZERO MUL SWAP1 PUSH1 0x40 MLOAD PUSH0 PUSH1 0x40 MLOAD DUP1 DUP4 SUB DUP2 DUP6 DUP9 DUP9 CALL SWAP4 POP POP POP POP ISZERO DUP1 ISZERO PUSH2 0x13D JUMPI RETURNDATASIZE PUSH0 PUSH0 RETURNDATACOPY RETURNDATASIZE PUSH0 REVERT JUMPDEST POP JUMP JUMPDEST PUSH0 PUSH0 SWAP1 SLOAD SWAP1 PUSH2 0x100 EXP SWAP1 DIV PUSH20 0xFFFFFFFFFFFFFFFFFFFFFFFFFFFFFFFFFFFFFFFF AND PUSH20 0xFFFFFFFFFFFFFFFFFFFFFFFFFFFFFFFFFFFFFFFF AND CALLER PUSH20 0xFFFFFFFFFFFFFFFFFFFFFFFFFFFFFFFFFFFFFFFF AND EQ PUSH2 0x1CE JUMPI PUSH1 0x40 MLOAD PUSH32 0x8C379A000000000000000000000000000000000000000000000000000000000 DUP2 MSTORE PUSH1 0x4 ADD PUSH2 0x1C5 SWAP1 PUSH2 0x35B JUMP JUMPDEST PUSH1 0x40 MLOAD DUP1 SWAP2 SUB SWAP1 REVERT JUMPDEST PUSH0 PUSH0 PUSH0 SWAP1 SLOAD SWAP1 PUSH2 0x100 EXP SWAP1 DIV PUSH20 0xFFFFFFFFFFFFFFFFFFFFFFFFFFFFFFFFFFFFFFFF AND PUSH20 0xFFFFFFFFFFFFFFFFFFFFFFFFFFFFFFFFFFFFFFFF AND SELFBALANCE PUSH1 0x40 MLOAD PUSH2 0x213 SWAP1 PUSH2 0x3A6 JUMP JUMPDEST PUSH0 PUSH1 0x40 MLOAD DUP1 DUP4 SUB DUP2 DUP6 DUP8 GAS CALL SWAP3 POP POP POP RETURNDATASIZE DUP1 PUSH0 DUP2 EQ PUSH2 0x24D JUMPI PUSH1 0x40 MLOAD SWAP2 POP PUSH1 0x1F NOT PUSH1 0x3F RETURNDATASIZE ADD AND DUP3 ADD PUSH1 0x40 MSTORE RETURNDATASIZE DUP3 MSTORE RETURNDATASIZE PUSH0 PUSH1 0x20 DUP5 ADD RETURNDATACOPY PUSH2 0x252 JUMP JUMPDEST PUSH1 0x60 SWAP2 POP JUMPDEST POP POP SWAP1 POP DUP1 PUSH2 0x296 JUMPI PUSH1 0x40 MLOAD PUSH32 0x8C379A000000000000000000000000000000000000000000000000000000000 DUP2 MSTORE PUSH1 0x4 ADD PUSH2 0x28D SWAP1 PUSH2 0x404 JUMP JUMPDEST PUSH1 0x40 MLOAD DUP1 SWAP2 SUB SWAP1 REVERT JUMPDEST POP JUMP JUMPDEST PUSH0 DUP3 DUP3 MSTORE PUSH1 0x20 DUP3 ADD SWAP1 POP SWAP3 SWAP2 POP POP JUMP JUMPDEST PUSH32 0x6E6F74206F776E65720000000000000000000000000000000000000000000000 PUSH0 DUP3 ADD MSTORE POP JUMP JUMPDEST PUSH0 PUSH2 0x2DD PUSH1 0x9 DUP4 PUSH2 0x299 JUMP JUMPDEST SWAP2 POP PUSH2 0x2E8 DUP3 PUSH2 0x2A9 JUMP JUMPDEST PUSH1 0x20 DUP3 ADD SWAP1 POP SWAP2 SWAP1 POP JUMP JUMPDEST PUSH0 PUSH1 0x20 DUP3 ADD SWAP1 POP DUP2 DUP2 SUB PUSH0 DUP4 ADD MSTORE PUSH2 0x30A DUP2 PUSH2 0x2D1 JUMP JUMPDEST SWAP1 POP SWAP2 SWAP1 POP JUMP JUMPDEST PUSH32 0x4E6F74206F776E65720000000000000000000000000000000000000000000000 PUSH0 DUP3 ADD MSTORE POP JUMP JUMPDEST PUSH0 PUSH2 0x345 PUSH1 0x9 DUP4 PUSH2 0x299 JUMP JUMPDEST SWAP2 POP PUSH2 0x350 DUP3 PUSH2 0x311 JUMP JUMPDEST PUSH1 0x20 DUP3 ADD SWAP1 POP SWAP2 SWAP1 POP JUMP JUMPDEST PUSH0 PUSH1 0x20 DUP3 ADD SWAP1 POP DUP2 DUP2 SUB PUSH0 DUP4 ADD MSTORE PUSH2 0x372 DUP2 PUSH2 0x339 JUMP JUMPDEST SWAP1 POP SWAP2 SWAP1 POP JUMP JUMPDEST PUSH0 DUP2 SWAP1 POP SWAP3 SWAP2 POP POP JUMP JUMPDEST POP JUMP JUMPDEST PUSH0 PUSH2 0x391 PUSH0 DUP4 PUSH2 0x379 JUMP JUMPDEST SWAP2 POP PUSH2 0x39C DUP3 PUSH2 0x383 JUMP JUMPDEST PUSH0 DUP3 ADD SWAP1 POP SWAP2 SWAP1 POP JUMP JUMPDEST PUSH0 PUSH2 0x3B0 DUP3 PUSH2 0x386 JUMP JUMPDEST SWAP2 POP DUP2 SWAP1 POP SWAP2 SWAP1 POP JUMP JUMPDEST PUSH32 0x4E6F207365207075646F207472616E7366657269720000000000000000000000 PUSH0 DUP3 ADD MSTORE POP JUMP JUMPDEST PUSH0 PUSH2 0x3EE PUSH1 0x15 DUP4 PUSH2 0x299 JUMP JUMPDEST SWAP2 POP PUSH2 0x3F9 DUP3 PUSH2 0x3BA JUMP JUMPDEST PUSH1 0x20 DUP3 ADD SWAP1 POP SWAP2 SWAP1 POP JUMP JUMPDEST PUSH0 PUSH1 0x20 DUP3 ADD SWAP1 POP DUP2 DUP2 SUB PUSH0 DUP4 ADD MSTORE PUSH2 0x41B DUP2 PUSH2 0x3E2 JUMP JUMPDEST SWAP1 POP SWAP2 SWAP1 POP JUMP INVALID LOG2 PUSH5 0x6970667358 0x22 SLT KECCAK256 CALLDATALOAD 0xDE PUSH3 0xB53D94 SELFDESTRUCT PUSH21 0xAD3D5216C3B214CE10A6ABAE87EF7F3B87D26185BF RETF DUP8 CALL PUSH5 0x736F6C6343 STOP ADDMOD 0x1E STOP CALLER "
				},
				"gasEstimates": {
					"creation": {
						"codeDepositCost": "222400",
						"executionCost": "24525",
						"totalCost": "246925"
					},
					"external": {
						"transfer()": "infinite",
						"transferir()": "infinite"
					}
				},
				"methodIdentifiers": {
					"transfer()": "8a4068dd",
					"transferir()": "b981f53a"
				}
			},
			"storageLayout": {
				"storage": [
					{
						"astId": 3,
						"contract": "Transfer.sol:Transfer",
						"label": "owner",
						"offset": 0,
						"slot": "0",
						"type": "t_address_payable"
					}
				],
				"types": {
					"t_address_payable": {
						"encoding": "inplace",
						"label": "address payable",
						"numberOfBytes": "20"
					}
				}
			},
			"userdoc": {
				"kind": "user",
				"methods": {},
				"version": 1
			}
		}
	}
}