{
	"EjemploPureView2.sol": {
		"EjemploPureView2": {
			"abi": [
				{
					"inputs": [],
					"stateMutability": "nonpayable",
					"type": "constructor"
				},
				{
					"inputs": [
						{
							"internalType": "uint256",
							"name": "nuevoNumero",
							"type": "uint256"
						}
					],
					"name": "actualizarNumero",
					"outputs": [],
					"stateMutability": "nonpayable",
					"type": "function"
				},
				{
					"inputs": [
						{
							"internalType": "uint256",
							"name": "a",
							"type": "uint256"
						}
					],
					"name": "multiplicar",
					"outputs": [
						{
							"internalType": "uint256",
							"name": "",
							"type": "uint256"
						}
					],
					"stateMutability": "view",
					"type": "function"
				},
				{
					"inputs": [],
					"name": "numeroAlmacenado",
					"outputs": [
						{
							"internalType": "uint256",
							"name": "",
							"type": "uint256"
						}
					],
					"stateMutability": "view",
					"type": "function"
				},
				{
					"inputs": [
						{
							"internalType": "uint256",
							"name": "a",
							"type": "uint256"
						},
						{
							"internalType": "uint256",
							"name": "b",
							"type": "uint256"
						}
					],
					"name": "sumar",
					"outputs": [
						{
							"internalType": "uint256",
							"name": "",
							"type": "uint256"
						}
					],
					"stateMutability": "pure",
					"type": "function"
				}
			],
			"devdoc": {
				"kind": "dev",
				"methods": {},
				"version": 1
			},
			"evm": {
				"assembly": "    /* \"EjemploPureView2.sol\":60:688  contract EjemploPureView2 {... */\n  mstore(0x40, 0x80)\n    /* \"EjemploPureView2.sol\":132:187  constructor() {... */\n  callvalue\n  dup1\n  iszero\n  tag_1\n  jumpi\n  revert(0x00, 0x00)\ntag_1:\n  pop\n    /* \"EjemploPureView2.sol\":176:179  100 */\n  0x64\n    /* \"EjemploPureView2.sol\":157:173  numeroAlmacenado */\n  0x00\n    /* \"EjemploPureView2.sol\":157:179  numeroAlmacenado = 100 */\n  dup2\n  swap1\n  sstore\n  pop\n    /* \"EjemploPureView2.sol\":60:688  contract EjemploPureView2 {... */\n  dataSize(sub_0)\n  dup1\n  dataOffset(sub_0)\n  0x00\n  codecopy\n  0x00\n  return\nstop\n\nsub_0: assembly {\n        /* \"EjemploPureView2.sol\":60:688  contract EjemploPureView2 {... */\n      mstore(0x40, 0x80)\n      callvalue\n      dup1\n      iszero\n      tag_1\n      jumpi\n      revert(0x00, 0x00)\n    tag_1:\n      pop\n      jumpi(tag_2, lt(calldatasize, 0x04))\n      shr(0xe0, calldataload(0x00))\n      dup1\n      0x1a96dfcf\n      eq\n      tag_3\n      jumpi\n      dup1\n      0xb5bef9ce\n      eq\n      tag_4\n      jumpi\n      dup1\n      0xf0ca1937\n      eq\n      tag_5\n      jumpi\n      dup1\n      0xfd61371e\n      eq\n      tag_6\n      jumpi\n    tag_2:\n      revert(0x00, 0x00)\n        /* \"EjemploPureView2.sol\":418:520  function multiplicar(uint a) public view returns (uint) {... */\n    tag_3:\n      tag_7\n      0x04\n      dup1\n      calldatasize\n      sub\n      dup2\n      add\n      swap1\n      tag_8\n      swap2\n      swap1\n      tag_9\n      jump\t// in\n    tag_8:\n      tag_10\n      jump\t// in\n    tag_7:\n      mload(0x40)\n      tag_11\n      swap2\n      swap1\n      tag_12\n      jump\t// in\n    tag_11:\n      mload(0x40)\n      dup1\n      swap2\n      sub\n      swap1\n      return\n        /* \"EjemploPureView2.sol\":95:123  uint public numeroAlmacenado */\n    tag_4:\n      tag_13\n      tag_14\n      jump\t// in\n    tag_13:\n      mload(0x40)\n      tag_15\n      swap2\n      swap1\n      tag_12\n      jump\t// in\n    tag_15:\n      mload(0x40)\n      dup1\n      swap2\n      sub\n      swap1\n      return\n        /* \"EjemploPureView2.sol\":585:685  function actualizarNumero(uint nuevoNumero) public {... */\n    tag_5:\n      tag_16\n      0x04\n      dup1\n      calldatasize\n      sub\n      dup2\n      add\n      swap1\n      tag_17\n      swap2\n      swap1\n      tag_9\n      jump\t// in\n    tag_17:\n      tag_18\n      jump\t// in\n    tag_16:\n      stop\n        /* \"EjemploPureView2.sol\":258:347  function sumar(uint a, uint b) public pure returns (uint) {... */\n    tag_6:\n      tag_19\n      0x04\n      dup1\n      calldatasize\n      sub\n      dup2\n      add\n      swap1\n      tag_20\n      swap2\n      swap1\n      tag_21\n      jump\t// in\n    tag_20:\n      tag_22\n      jump\t// in\n    tag_19:\n      mload(0x40)\n      tag_23\n      swap2\n      swap1\n      tag_12\n      jump\t// in\n    tag_23:\n      mload(0x40)\n      dup1\n      swap2\n      sub\n      swap1\n      return\n        /* \"EjemploPureView2.sol\":418:520  function multiplicar(uint a) public view returns (uint) {... */\n    tag_10:\n        /* \"EjemploPureView2.sol\":468:472  uint */\n      0x00\n        /* \"EjemploPureView2.sol\":511:512  a */\n      dup2\n        /* \"EjemploPureView2.sol\":492:508  numeroAlmacenado */\n      sload(0x00)\n        /* \"EjemploPureView2.sol\":492:512  numeroAlmacenado * a */\n      tag_25\n      swap2\n      swap1\n      tag_26\n      jump\t// in\n    tag_25:\n        /* \"EjemploPureView2.sol\":485:512  return numeroAlmacenado * a */\n      swap1\n      pop\n        /* \"EjemploPureView2.sol\":418:520  function multiplicar(uint a) public view returns (uint) {... */\n      swap2\n      swap1\n      pop\n      jump\t// out\n        /* \"EjemploPureView2.sol\":95:123  uint public numeroAlmacenado */\n    tag_14:\n      sload(0x00)\n      dup2\n      jump\t// out\n        /* \"EjemploPureView2.sol\":585:685  function actualizarNumero(uint nuevoNumero) public {... */\n    tag_18:\n        /* \"EjemploPureView2.sol\":666:677  nuevoNumero */\n      dup1\n        /* \"EjemploPureView2.sol\":647:663  numeroAlmacenado */\n      0x00\n        /* \"EjemploPureView2.sol\":647:677  numeroAlmacenado = nuevoNumero */\n      dup2\n      swap1\n      sstore\n      pop\n        /* \"EjemploPureView2.sol\":585:685  function actualizarNumero(uint nuevoNumero) public {... */\n      pop\n      jump\t// out\n        /* \"EjemploPureView2.sol\":258:347  function sumar(uint a, uint b) public pure returns (uint) {... */\n    tag_22:\n        /* \"EjemploPureView2.sol\":310:314  uint */\n      0x00\n        /* \"EjemploPureView2.sol\":338:339  b */\n      dup2\n        /* \"EjemploPureView2.sol\":334:335  a */\n      dup4\n        /* \"EjemploPureView2.sol\":334:339  a + b */\n      tag_29\n      swap2\n      swap1\n      tag_30\n      jump\t// in\n    tag_29:\n        /* \"EjemploPureView2.sol\":327:339  return a + b */\n      swap1\n      pop\n        /* \"EjemploPureView2.sol\":258:347  function sumar(uint a, uint b) public pure returns (uint) {... */\n      swap3\n      swap2\n      pop\n      pop\n      jump\t// out\n        /* \"#utility.yul\":88:205   */\n    tag_32:\n        /* \"#utility.yul\":197:198   */\n      0x00\n        /* \"#utility.yul\":194:195   */\n      0x00\n        /* \"#utility.yul\":187:199   */\n      revert\n        /* \"#utility.yul\":334:411   */\n    tag_34:\n        /* \"#utility.yul\":371:378   */\n      0x00\n        /* \"#utility.yul\":400:405   */\n      dup2\n        /* \"#utility.yul\":389:405   */\n      swap1\n      pop\n        /* \"#utility.yul\":334:411   */\n      swap2\n      swap1\n      pop\n      jump\t// out\n        /* \"#utility.yul\":417:539   */\n    tag_35:\n        /* \"#utility.yul\":490:514   */\n      tag_45\n        /* \"#utility.yul\":508:513   */\n      dup2\n        /* \"#utility.yul\":490:514   */\n      tag_34\n      jump\t// in\n    tag_45:\n        /* \"#utility.yul\":483:488   */\n      dup2\n        /* \"#utility.yul\":480:515   */\n      eq\n        /* \"#utility.yul\":470:533   */\n      tag_46\n      jumpi\n        /* \"#utility.yul\":529:530   */\n      0x00\n        /* \"#utility.yul\":526:527   */\n      0x00\n        /* \"#utility.yul\":519:531   */\n      revert\n        /* \"#utility.yul\":470:533   */\n    tag_46:\n        /* \"#utility.yul\":417:539   */\n      pop\n      jump\t// out\n        /* \"#utility.yul\":545:684   */\n    tag_36:\n        /* \"#utility.yul\":591:596   */\n      0x00\n        /* \"#utility.yul\":629:635   */\n      dup2\n        /* \"#utility.yul\":616:636   */\n      calldataload\n        /* \"#utility.yul\":607:636   */\n      swap1\n      pop\n        /* \"#utility.yul\":645:678   */\n      tag_48\n        /* \"#utility.yul\":672:677   */\n      dup2\n        /* \"#utility.yul\":645:678   */\n      tag_35\n      jump\t// in\n    tag_48:\n        /* \"#utility.yul\":545:684   */\n      swap3\n      swap2\n      pop\n      pop\n      jump\t// out\n        /* \"#utility.yul\":690:1019   */\n    tag_9:\n        /* \"#utility.yul\":749:755   */\n      0x00\n        /* \"#utility.yul\":798:800   */\n      0x20\n        /* \"#utility.yul\":786:795   */\n      dup3\n        /* \"#utility.yul\":777:784   */\n      dup5\n        /* \"#utility.yul\":773:796   */\n      sub\n        /* \"#utility.yul\":769:801   */\n      slt\n        /* \"#utility.yul\":766:885   */\n      iszero\n      tag_50\n      jumpi\n        /* \"#utility.yul\":804:883   */\n      tag_51\n      tag_32\n      jump\t// in\n    tag_51:\n        /* \"#utility.yul\":766:885   */\n    tag_50:\n        /* \"#utility.yul\":924:925   */\n      0x00\n        /* \"#utility.yul\":949:1002   */\n      tag_52\n        /* \"#utility.yul\":994:1001   */\n      dup5\n        /* \"#utility.yul\":985:991   */\n      dup3\n        /* \"#utility.yul\":974:983   */\n      dup6\n        /* \"#utility.yul\":970:992   */\n      add\n        /* \"#utility.yul\":949:1002   */\n      tag_36\n      jump\t// in\n    tag_52:\n        /* \"#utility.yul\":939:1002   */\n      swap2\n      pop\n        /* \"#utility.yul\":895:1012   */\n      pop\n        /* \"#utility.yul\":690:1019   */\n      swap3\n      swap2\n      pop\n      pop\n      jump\t// out\n        /* \"#utility.yul\":1025:1143   */\n    tag_37:\n        /* \"#utility.yul\":1112:1136   */\n      tag_54\n        /* \"#utility.yul\":1130:1135   */\n      dup2\n        /* \"#utility.yul\":1112:1136   */\n      tag_34\n      jump\t// in\n    tag_54:\n        /* \"#utility.yul\":1107:1110   */\n      dup3\n        /* \"#utility.yul\":1100:1137   */\n      mstore\n        /* \"#utility.yul\":1025:1143   */\n      pop\n      pop\n      jump\t// out\n        /* \"#utility.yul\":1149:1371   */\n    tag_12:\n        /* \"#utility.yul\":1242:1246   */\n      0x00\n        /* \"#utility.yul\":1280:1282   */\n      0x20\n        /* \"#utility.yul\":1269:1278   */\n      dup3\n        /* \"#utility.yul\":1265:1283   */\n      add\n        /* \"#utility.yul\":1257:1283   */\n      swap1\n      pop\n        /* \"#utility.yul\":1293:1364   */\n      tag_56\n        /* \"#utility.yul\":1361:1362   */\n      0x00\n        /* \"#utility.yul\":1350:1359   */\n      dup4\n        /* \"#utility.yul\":1346:1363   */\n      add\n        /* \"#utility.yul\":1337:1343   */\n      dup5\n        /* \"#utility.yul\":1293:1364   */\n      tag_37\n      jump\t// in\n    tag_56:\n        /* \"#utility.yul\":1149:1371   */\n      swap3\n      swap2\n      pop\n      pop\n      jump\t// out\n        /* \"#utility.yul\":1377:1851   */\n    tag_21:\n        /* \"#utility.yul\":1445:1451   */\n      0x00\n        /* \"#utility.yul\":1453:1459   */\n      0x00\n        /* \"#utility.yul\":1502:1504   */\n      0x40\n        /* \"#utility.yul\":1490:1499   */\n      dup4\n        /* \"#utility.yul\":1481:1488   */\n      dup6\n        /* \"#utility.yul\":1477:1500   */\n      sub\n        /* \"#utility.yul\":1473:1505   */\n      slt\n        /* \"#utility.yul\":1470:1589   */\n      iszero\n      tag_58\n      jumpi\n        /* \"#utility.yul\":1508:1587   */\n      tag_59\n      tag_32\n      jump\t// in\n    tag_59:\n        /* \"#utility.yul\":1470:1589   */\n    tag_58:\n        /* \"#utility.yul\":1628:1629   */\n      0x00\n        /* \"#utility.yul\":1653:1706   */\n      tag_60\n        /* \"#utility.yul\":1698:1705   */\n      dup6\n        /* \"#utility.yul\":1689:1695   */\n      dup3\n        /* \"#utility.yul\":1678:1687   */\n      dup7\n        /* \"#utility.yul\":1674:1696   */\n      add\n        /* \"#utility.yul\":1653:1706   */\n      tag_36\n      jump\t// in\n    tag_60:\n        /* \"#utility.yul\":1643:1706   */\n      swap3\n      pop\n        /* \"#utility.yul\":1599:1716   */\n      pop\n        /* \"#utility.yul\":1755:1757   */\n      0x20\n        /* \"#utility.yul\":1781:1834   */\n      tag_61\n        /* \"#utility.yul\":1826:1833   */\n      dup6\n        /* \"#utility.yul\":1817:1823   */\n      dup3\n        /* \"#utility.yul\":1806:1815   */\n      dup7\n        /* \"#utility.yul\":1802:1824   */\n      add\n        /* \"#utility.yul\":1781:1834   */\n      tag_36\n      jump\t// in\n    tag_61:\n        /* \"#utility.yul\":1771:1834   */\n      swap2\n      pop\n        /* \"#utility.yul\":1726:1844   */\n      pop\n        /* \"#utility.yul\":1377:1851   */\n      swap3\n      pop\n      swap3\n      swap1\n      pop\n      jump\t// out\n        /* \"#utility.yul\":1857:2037   */\n    tag_38:\n        /* \"#utility.yul\":1905:1982   */\n      0x4e487b7100000000000000000000000000000000000000000000000000000000\n        /* \"#utility.yul\":1902:1903   */\n      0x00\n        /* \"#utility.yul\":1895:1983   */\n      mstore\n        /* \"#utility.yul\":2002:2006   */\n      0x11\n        /* \"#utility.yul\":1999:2000   */\n      0x04\n        /* \"#utility.yul\":1992:2007   */\n      mstore\n        /* \"#utility.yul\":2026:2030   */\n      0x24\n        /* \"#utility.yul\":2023:2024   */\n      0x00\n        /* \"#utility.yul\":2016:2031   */\n      revert\n        /* \"#utility.yul\":2043:2453   */\n    tag_26:\n        /* \"#utility.yul\":2083:2090   */\n      0x00\n        /* \"#utility.yul\":2106:2126   */\n      tag_64\n        /* \"#utility.yul\":2124:2125   */\n      dup3\n        /* \"#utility.yul\":2106:2126   */\n      tag_34\n      jump\t// in\n    tag_64:\n        /* \"#utility.yul\":2101:2126   */\n      swap2\n      pop\n        /* \"#utility.yul\":2140:2160   */\n      tag_65\n        /* \"#utility.yul\":2158:2159   */\n      dup4\n        /* \"#utility.yul\":2140:2160   */\n      tag_34\n      jump\t// in\n    tag_65:\n        /* \"#utility.yul\":2135:2160   */\n      swap3\n      pop\n        /* \"#utility.yul\":2195:2196   */\n      dup3\n        /* \"#utility.yul\":2192:2193   */\n      dup3\n        /* \"#utility.yul\":2188:2197   */\n      mul\n        /* \"#utility.yul\":2217:2247   */\n      tag_66\n        /* \"#utility.yul\":2235:2246   */\n      dup2\n        /* \"#utility.yul\":2217:2247   */\n      tag_34\n      jump\t// in\n    tag_66:\n        /* \"#utility.yul\":2206:2247   */\n      swap2\n      pop\n        /* \"#utility.yul\":2396:2397   */\n      dup3\n        /* \"#utility.yul\":2387:2394   */\n      dup3\n        /* \"#utility.yul\":2383:2398   */\n      div\n        /* \"#utility.yul\":2380:2381   */\n      dup5\n        /* \"#utility.yul\":2377:2399   */\n      eq\n        /* \"#utility.yul\":2357:2358   */\n      dup4\n        /* \"#utility.yul\":2350:2359   */\n      iszero\n        /* \"#utility.yul\":2330:2413   */\n      or\n        /* \"#utility.yul\":2307:2446   */\n      tag_67\n      jumpi\n        /* \"#utility.yul\":2426:2444   */\n      tag_68\n      tag_38\n      jump\t// in\n    tag_68:\n        /* \"#utility.yul\":2307:2446   */\n    tag_67:\n        /* \"#utility.yul\":2091:2453   */\n      pop\n        /* \"#utility.yul\":2043:2453   */\n      swap3\n      swap2\n      pop\n      pop\n      jump\t// out\n        /* \"#utility.yul\":2459:2650   */\n    tag_30:\n        /* \"#utility.yul\":2499:2502   */\n      0x00\n        /* \"#utility.yul\":2518:2538   */\n      tag_70\n        /* \"#utility.yul\":2536:2537   */\n      dup3\n        /* \"#utility.yul\":2518:2538   */\n      tag_34\n      jump\t// in\n    tag_70:\n        /* \"#utility.yul\":2513:2538   */\n      swap2\n      pop\n        /* \"#utility.yul\":2552:2572   */\n      tag_71\n        /* \"#utility.yul\":2570:2571   */\n      dup4\n        /* \"#utility.yul\":2552:2572   */\n      tag_34\n      jump\t// in\n    tag_71:\n        /* \"#utility.yul\":2547:2572   */\n      swap3\n      pop\n        /* \"#utility.yul\":2595:2596   */\n      dup3\n        /* \"#utility.yul\":2592:2593   */\n      dup3\n        /* \"#utility.yul\":2588:2597   */\n      add\n        /* \"#utility.yul\":2581:2597   */\n      swap1\n      pop\n        /* \"#utility.yul\":2616:2619   */\n      dup1\n        /* \"#utility.yul\":2613:2614   */\n      dup3\n        /* \"#utility.yul\":2610:2620   */\n      gt\n        /* \"#utility.yul\":2607:2643   */\n      iszero\n      tag_72\n      jumpi\n        /* \"#utility.yul\":2623:2641   */\n      tag_73\n      tag_38\n      jump\t// in\n    tag_73:\n        /* \"#utility.yul\":2607:2643   */\n    tag_72:\n        /* \"#utility.yul\":2459:2650   */\n      swap3\n      swap2\n      pop\n      pop\n      jump\t// out\n\n    auxdata: 0xa264697066735822122085e9eb38265b94da28eac7bb99bf7878a602c0780ba9a4db1f139508da5a8cdc64736f6c634300081e0033\n}\n",
				"bytecode": {
					"linkReferences": {},
					"object": "6080604052348015600e575f5ffd5b5060645f819055506102bf806100235f395ff3fe608060405234801561000f575f5ffd5b506004361061004a575f3560e01c80631a96dfcf1461004e578063b5bef9ce1461007e578063f0ca19371461009c578063fd61371e146100b8575b5f5ffd5b61006860048036038101906100639190610157565b6100e8565b6040516100759190610191565b60405180910390f35b6100866100fd565b6040516100939190610191565b60405180910390f35b6100b660048036038101906100b19190610157565b610102565b005b6100d260048036038101906100cd91906101aa565b61010b565b6040516100df9190610191565b60405180910390f35b5f815f546100f69190610215565b9050919050565b5f5481565b805f8190555050565b5f81836101189190610256565b905092915050565b5f5ffd5b5f819050919050565b61013681610124565b8114610140575f5ffd5b50565b5f813590506101518161012d565b92915050565b5f6020828403121561016c5761016b610120565b5b5f61017984828501610143565b91505092915050565b61018b81610124565b82525050565b5f6020820190506101a45f830184610182565b92915050565b5f5f604083850312156101c0576101bf610120565b5b5f6101cd85828601610143565b92505060206101de85828601610143565b9150509250929050565b7f4e487b71000000000000000000000000000000000000000000000000000000005f52601160045260245ffd5b5f61021f82610124565b915061022a83610124565b925082820261023881610124565b9150828204841483151761024f5761024e6101e8565b5b5092915050565b5f61026082610124565b915061026b83610124565b9250828201905080821115610283576102826101e8565b5b9291505056fea264697066735822122085e9eb38265b94da28eac7bb99bf7878a602c0780ba9a4db1f139508da5a8cdc64736f6c634300081e0033",
					"opcodes": "PUSH1 0x80 PUSH1 0x40 MSTORE CALLVALUE DUP1 ISZERO PUSH1 0xE JUMPI PUSH0 PUSH0 REVERT JUMPDEST POP PUSH1 0x64 PUSH0 DUP2 SWAP1 SSTORE POP PUSH2 0x2BF DUP1 PUSH2 0x23 PUSH0 CODECOPY PUSH0 RETURN INVALID PUSH1 0x80 PUSH1 0x40 MSTORE CALLVALUE DUP1 ISZERO PUSH2 0xF JUMPI PUSH0 PUSH0 REVERT JUMPDEST POP PUSH1 0x4 CALLDATASIZE LT PUSH2 0x4A JUMPI PUSH0 CALLDATALOAD PUSH1 0xE0 SHR DUP1 PUSH4 0x1A96DFCF EQ PUSH2 0x4E JUMPI DUP1 PUSH4 0xB5BEF9CE EQ PUSH2 0x7E JUMPI DUP1 PUSH4 0xF0CA1937 EQ PUSH2 0x9C JUMPI DUP1 PUSH4 0xFD61371E EQ PUSH2 0xB8 JUMPI JUMPDEST PUSH0 PUSH0 REVERT JUMPDEST PUSH2 0x68 PUSH1 0x4 DUP1 CALLDATASIZE SUB DUP2 ADD SWAP1 PUSH2 0x63 SWAP2 SWAP1 PUSH2 0x157 JUMP JUMPDEST PUSH2 0xE8 JUMP JUMPDEST PUSH1 0x40 MLOAD PUSH2 0x75 SWAP2 SWAP1 PUSH2 0x191 JUMP JUMPDEST PUSH1 0x40 MLOAD DUP1 SWAP2 SUB SWAP1 RETURN JUMPDEST PUSH2 0x86 PUSH2 0xFD JUMP JUMPDEST PUSH1 0x40 MLOAD PUSH2 0x93 SWAP2 SWAP1 PUSH2 0x191 JUMP JUMPDEST PUSH1 0x40 MLOAD DUP1 SWAP2 SUB SWAP1 RETURN JUMPDEST PUSH2 0xB6 PUSH1 0x4 DUP1 CALLDATASIZE SUB DUP2 ADD SWAP1 PUSH2 0xB1 SWAP2 SWAP1 PUSH2 0x157 JUMP JUMPDEST PUSH2 0x102 JUMP JUMPDEST STOP JUMPDEST PUSH2 0xD2 PUSH1 0x4 DUP1 CALLDATASIZE SUB DUP2 ADD SWAP1 PUSH2 0xCD SWAP2 SWAP1 PUSH2 0x1AA JUMP JUMPDEST PUSH2 0x10B JUMP JUMPDEST PUSH1 0x40 MLOAD PUSH2 0xDF SWAP2 SWAP1 PUSH2 0x191 JUMP JUMPDEST PUSH1 0x40 MLOAD DUP1 SWAP2 SUB SWAP1 RETURN JUMPDEST PUSH0 DUP2 PUSH0 SLOAD PUSH2 0xF6 SWAP2 SWAP1 PUSH2 0x215 JUMP JUMPDEST SWAP1 POP SWAP2 SWAP1 POP JUMP JUMPDEST PUSH0 SLOAD DUP2 JUMP JUMPDEST DUP1 PUSH0 DUP2 SWAP1 SSTORE POP POP JUMP JUMPDEST PUSH0 DUP2 DUP4 PUSH2 0x118 SWAP2 SWAP1 PUSH2 0x256 JUMP JUMPDEST SWAP1 POP SWAP3 SWAP2 POP POP JUMP JUMPDEST PUSH0 PUSH0 REVERT JUMPDEST PUSH0 DUP2 SWAP1 POP SWAP2 SWAP1 POP JUMP JUMPDEST PUSH2 0x136 DUP2 PUSH2 0x124 JUMP JUMPDEST DUP2 EQ PUSH2 0x140 JUMPI PUSH0 PUSH0 REVERT JUMPDEST POP JUMP JUMPDEST PUSH0 DUP2 CALLDATALOAD SWAP1 POP PUSH2 0x151 DUP2 PUSH2 0x12D JUMP JUMPDEST SWAP3 SWAP2 POP POP JUMP JUMPDEST PUSH0 PUSH1 0x20 DUP3 DUP5 SUB SLT ISZERO PUSH2 0x16C JUMPI PUSH2 0x16B PUSH2 0x120 JUMP JUMPDEST JUMPDEST PUSH0 PUSH2 0x179 DUP5 DUP3 DUP6 ADD PUSH2 0x143 JUMP JUMPDEST SWAP2 POP POP SWAP3 SWAP2 POP POP JUMP JUMPDEST PUSH2 0x18B DUP2 PUSH2 0x124 JUMP JUMPDEST DUP3 MSTORE POP POP JUMP JUMPDEST PUSH0 PUSH1 0x20 DUP3 ADD SWAP1 POP PUSH2 0x1A4 PUSH0 DUP4 ADD DUP5 PUSH2 0x182 JUMP JUMPDEST SWAP3 SWAP2 POP POP JUMP JUMPDEST PUSH0 PUSH0 PUSH1 0x40 DUP4 DUP6 SUB SLT ISZERO PUSH2 0x1C0 JUMPI PUSH2 0x1BF PUSH2 0x120 JUMP JUMPDEST JUMPDEST PUSH0 PUSH2 0x1CD DUP6 DUP3 DUP7 ADD PUSH2 0x143 JUMP JUMPDEST SWAP3 POP POP PUSH1 0x20 PUSH2 0x1DE DUP6 DUP3 DUP7 ADD PUSH2 0x143 JUMP JUMPDEST SWAP2 POP POP SWAP3 POP SWAP3 SWAP1 POP JUMP JUMPDEST PUSH32 0x4E487B7100000000000000000000000000000000000000000000000000000000 PUSH0 MSTORE PUSH1 0x11 PUSH1 0x4 MSTORE PUSH1 0x24 PUSH0 REVERT JUMPDEST PUSH0 PUSH2 0x21F DUP3 PUSH2 0x124 JUMP JUMPDEST SWAP2 POP PUSH2 0x22A DUP4 PUSH2 0x124 JUMP JUMPDEST SWAP3 POP DUP3 DUP3 MUL PUSH2 0x238 DUP2 PUSH2 0x124 JUMP JUMPDEST SWAP2 POP DUP3 DUP3 DIV DUP5 EQ DUP4 ISZERO OR PUSH2 0x24F JUMPI PUSH2 0x24E PUSH2 0x1E8 JUMP JUMPDEST JUMPDEST POP SWAP3 SWAP2 POP POP JUMP JUMPDEST PUSH0 PUSH2 0x260 DUP3 PUSH2 0x124 JUMP JUMPDEST SWAP2 POP PUSH2 0x26B DUP4 PUSH2 0x124 JUMP JUMPDEST SWAP3 POP DUP3 DUP3 ADD SWAP1 POP DUP1 DUP3 GT ISZERO PUSH2 0x283 JUMPI PUSH2 0x282 PUSH2 0x1E8 JUMP JUMPDEST JUMPDEST SWAP3 SWAP2 POP POP JUMP INVALID LOG2 PUSH5 0x6970667358 0x22 SLT KECCAK256 DUP6 0xE9 0xEB CODESIZE 0x26 JUMPDEST SWAP5 0xDA 0x28 0xEA 0xC7 0xBB SWAP10 0xBF PUSH25 0x78A602C0780BA9A4DB1F139508DA5A8CDC64736F6C63430008 0x1E STOP CALLER "
				},
				"gasEstimates": {
					"creation": {
						"codeDepositCost": "140600",
						"executionCost": "22294",
						"totalCost": "162894"
					},
					"external": {
						"actualizarNumero(uint256)": "22536",
						"multiplicar(uint256)": "infinite",
						"numeroAlmacenado()": "2424",
						"sumar(uint256,uint256)": "infinite"
					}
				},
				"methodIdentifiers": {
					"actualizarNumero(uint256)": "f0ca1937",
					"multiplicar(uint256)": "1a96dfcf",
					"numeroAlmacenado()": "b5bef9ce",
					"sumar(uint256,uint256)": "fd61371e"
				}
			},
			"storageLayout": {
				"storage": [
					{
						"astId": 3,
						"contract": "EjemploPureView2.sol:EjemploPureView2",
						"label": "numeroAlmacenado",
						"offset": 0,
						"slot": "0",
						"type": "t_uint256"
					}
				],
				"types": {
					"t_uint256": {
						"encoding": "inplace",
						"label": "uint256",
						"numberOfBytes": "32"
					}
				}
			},
			"userdoc": {
				"kind": "user",
				"methods": {
					"actualizarNumero(uint256)": {
						"notice": "Funci칩n normal (no es ni pure ni view)"
					},
					"multiplicar(uint256)": {
						"notice": "Funci칩n VIEW: Lee estado pero no lo modifica"
					},
					"sumar(uint256,uint256)": {
						"notice": "Funci칩n PURE: Solo opera con sus par치metros"
					}
				},
				"version": 1
			}
		}
	}
}