{
	"Funciones.sol": {
		"Funciones": {
			"abi": [
				{
					"inputs": [],
					"name": "externalFunction",
					"outputs": [],
					"stateMutability": "nonpayable",
					"type": "function"
				},
				{
					"inputs": [],
					"name": "publicFunction",
					"outputs": [],
					"stateMutability": "nonpayable",
					"type": "function"
				},
				{
					"inputs": [],
					"name": "verValor",
					"outputs": [
						{
							"internalType": "uint256",
							"name": "",
							"type": "uint256"
						}
					],
					"stateMutability": "view",
					"type": "function"
				}
			],
			"devdoc": {
				"kind": "dev",
				"methods": {},
				"version": 1
			},
			"evm": {
				"assembly": "    /* \"Funciones.sol\":58:676  contract Funciones{... */\n  mstore(0x40, 0x80)\n    /* \"Funciones.sol\":501:503  10 */\n  0x0a\n    /* \"Funciones.sol\":494:503  uint a=10 */\n  0x00\n  sstore\n    /* \"Funciones.sol\":58:676  contract Funciones{... */\n  callvalue\n  dup1\n  iszero\n  tag_1\n  jumpi\n  revert(0x00, 0x00)\ntag_1:\n  pop\n  dataSize(sub_0)\n  dup1\n  dataOffset(sub_0)\n  0x00\n  codecopy\n  0x00\n  return\nstop\n\nsub_0: assembly {\n        /* \"Funciones.sol\":58:676  contract Funciones{... */\n      mstore(0x40, 0x80)\n      callvalue\n      dup1\n      iszero\n      tag_1\n      jumpi\n      revert(0x00, 0x00)\n    tag_1:\n      pop\n      jumpi(tag_2, lt(calldatasize, 0x04))\n      shr(0xe0, calldataload(0x00))\n      dup1\n      0x3a32b549\n      eq\n      tag_3\n      jumpi\n      dup1\n      0x7b5d520b\n      eq\n      tag_4\n      jumpi\n      dup1\n      0xb95cd6c1\n      eq\n      tag_5\n      jumpi\n    tag_2:\n      revert(0x00, 0x00)\n        /* \"Funciones.sol\":391:486  function externalFunction() external{... */\n    tag_3:\n      tag_6\n      tag_7\n      jump\t// in\n    tag_6:\n      stop\n        /* \"Funciones.sol\":85:168  function publicFunction() public{... */\n    tag_4:\n      tag_8\n      tag_9\n      jump\t// in\n    tag_8:\n      stop\n        /* \"Funciones.sol\":598:671  function verValor() public view returns (uint){... */\n    tag_5:\n      tag_10\n      tag_11\n      jump\t// in\n    tag_10:\n      mload(0x40)\n      tag_12\n      swap2\n      swap1\n      tag_13\n      jump\t// in\n    tag_12:\n      mload(0x40)\n      dup1\n      swap2\n      sub\n      swap1\n      return\n        /* \"Funciones.sol\":391:486  function externalFunction() external{... */\n    tag_7:\n      jump\t// out\n        /* \"Funciones.sol\":85:168  function publicFunction() public{... */\n    tag_9:\n      jump\t// out\n        /* \"Funciones.sol\":598:671  function verValor() public view returns (uint){... */\n    tag_11:\n        /* \"Funciones.sol\":639:643  uint */\n      0x00\n        /* \"Funciones.sol\":662:663  a */\n      sload(0x00)\n        /* \"Funciones.sol\":655:663  return a */\n      swap1\n      pop\n        /* \"Funciones.sol\":598:671  function verValor() public view returns (uint){... */\n      swap1\n      jump\t// out\n        /* \"#utility.yul\":7:84   */\n    tag_17:\n        /* \"#utility.yul\":44:51   */\n      0x00\n        /* \"#utility.yul\":73:78   */\n      dup2\n        /* \"#utility.yul\":62:78   */\n      swap1\n      pop\n        /* \"#utility.yul\":7:84   */\n      swap2\n      swap1\n      pop\n      jump\t// out\n        /* \"#utility.yul\":90:208   */\n    tag_18:\n        /* \"#utility.yul\":177:201   */\n      tag_22\n        /* \"#utility.yul\":195:200   */\n      dup2\n        /* \"#utility.yul\":177:201   */\n      tag_17\n      jump\t// in\n    tag_22:\n        /* \"#utility.yul\":172:175   */\n      dup3\n        /* \"#utility.yul\":165:202   */\n      mstore\n        /* \"#utility.yul\":90:208   */\n      pop\n      pop\n      jump\t// out\n        /* \"#utility.yul\":214:436   */\n    tag_13:\n        /* \"#utility.yul\":307:311   */\n      0x00\n        /* \"#utility.yul\":345:347   */\n      0x20\n        /* \"#utility.yul\":334:343   */\n      dup3\n        /* \"#utility.yul\":330:348   */\n      add\n        /* \"#utility.yul\":322:348   */\n      swap1\n      pop\n        /* \"#utility.yul\":358:429   */\n      tag_24\n        /* \"#utility.yul\":426:427   */\n      0x00\n        /* \"#utility.yul\":415:424   */\n      dup4\n        /* \"#utility.yul\":411:428   */\n      add\n        /* \"#utility.yul\":402:408   */\n      dup5\n        /* \"#utility.yul\":358:429   */\n      tag_18\n      jump\t// in\n    tag_24:\n        /* \"#utility.yul\":214:436   */\n      swap3\n      swap2\n      pop\n      pop\n      jump\t// out\n\n    auxdata: 0xa264697066735822122037728584810f36ceefb8ed65979d3934dd3fc8e89b2fbac5b9b7c03cc5b8bff264736f6c634300081e0033\n}\n",
				"bytecode": {
					"linkReferences": {},
					"object": "6080604052600a5f553480156012575f5ffd5b5060d780601e5f395ff3fe6080604052348015600e575f5ffd5b5060043610603a575f3560e01c80633a32b54914603e5780637b5d520b146046578063b95cd6c114604e575b5f5ffd5b60446068565b005b604c606a565b005b6054606c565b604051605f9190608a565b60405180910390f35b565b565b5f5f54905090565b5f819050919050565b6084816074565b82525050565b5f602082019050609b5f830184607d565b9291505056fea264697066735822122037728584810f36ceefb8ed65979d3934dd3fc8e89b2fbac5b9b7c03cc5b8bff264736f6c634300081e0033",
					"opcodes": "PUSH1 0x80 PUSH1 0x40 MSTORE PUSH1 0xA PUSH0 SSTORE CALLVALUE DUP1 ISZERO PUSH1 0x12 JUMPI PUSH0 PUSH0 REVERT JUMPDEST POP PUSH1 0xD7 DUP1 PUSH1 0x1E PUSH0 CODECOPY PUSH0 RETURN INVALID PUSH1 0x80 PUSH1 0x40 MSTORE CALLVALUE DUP1 ISZERO PUSH1 0xE JUMPI PUSH0 PUSH0 REVERT JUMPDEST POP PUSH1 0x4 CALLDATASIZE LT PUSH1 0x3A JUMPI PUSH0 CALLDATALOAD PUSH1 0xE0 SHR DUP1 PUSH4 0x3A32B549 EQ PUSH1 0x3E JUMPI DUP1 PUSH4 0x7B5D520B EQ PUSH1 0x46 JUMPI DUP1 PUSH4 0xB95CD6C1 EQ PUSH1 0x4E JUMPI JUMPDEST PUSH0 PUSH0 REVERT JUMPDEST PUSH1 0x44 PUSH1 0x68 JUMP JUMPDEST STOP JUMPDEST PUSH1 0x4C PUSH1 0x6A JUMP JUMPDEST STOP JUMPDEST PUSH1 0x54 PUSH1 0x6C JUMP JUMPDEST PUSH1 0x40 MLOAD PUSH1 0x5F SWAP2 SWAP1 PUSH1 0x8A JUMP JUMPDEST PUSH1 0x40 MLOAD DUP1 SWAP2 SUB SWAP1 RETURN JUMPDEST JUMP JUMPDEST JUMP JUMPDEST PUSH0 PUSH0 SLOAD SWAP1 POP SWAP1 JUMP JUMPDEST PUSH0 DUP2 SWAP1 POP SWAP2 SWAP1 POP JUMP JUMPDEST PUSH1 0x84 DUP2 PUSH1 0x74 JUMP JUMPDEST DUP3 MSTORE POP POP JUMP JUMPDEST PUSH0 PUSH1 0x20 DUP3 ADD SWAP1 POP PUSH1 0x9B PUSH0 DUP4 ADD DUP5 PUSH1 0x7D JUMP JUMPDEST SWAP3 SWAP2 POP POP JUMP INVALID LOG2 PUSH5 0x6970667358 0x22 SLT KECCAK256 CALLDATACOPY PUSH19 0x8584810F36CEEFB8ED65979D3934DD3FC8E89B 0x2F 0xBA 0xC5 0xB9 0xB7 0xC0 EXTCODECOPY 0xC5 0xB8 0xBF CALLCODE PUSH5 0x736F6C6343 STOP ADDMOD 0x1E STOP CALLER "
				},
				"gasEstimates": {
					"creation": {
						"codeDepositCost": "43000",
						"executionCost": "22196",
						"totalCost": "65196"
					},
					"external": {
						"externalFunction()": "121",
						"publicFunction()": "143",
						"verValor()": "2453"
					},
					"internal": {
						"internalFunction()": "infinite",
						"privateFunction()": "infinite"
					}
				},
				"methodIdentifiers": {
					"externalFunction()": "3a32b549",
					"publicFunction()": "7b5d520b",
					"verValor()": "b95cd6c1"
				}
			},
			"storageLayout": {
				"storage": [
					{
						"astId": 20,
						"contract": "Funciones.sol:Funciones",
						"label": "a",
						"offset": 0,
						"slot": "0",
						"type": "t_uint256"
					},
					{
						"astId": 22,
						"contract": "Funciones.sol:Funciones",
						"label": "message",
						"offset": 0,
						"slot": "1",
						"type": "t_string_storage"
					}
				],
				"types": {
					"t_string_storage": {
						"encoding": "bytes",
						"label": "string",
						"numberOfBytes": "32"
					},
					"t_uint256": {
						"encoding": "inplace",
						"label": "uint256",
						"numberOfBytes": "32"
					}
				}
			},
			"userdoc": {
				"kind": "user",
				"methods": {},
				"version": 1
			}
		}
	}
}